{
  "_format": "hh3-artifact-1",
  "contractName": "VerifiableMarketplace",
  "sourceName": "contracts/VerifiableMarketplace.sol",
  "abi": [
    {
      "inputs": [],
      "stateMutability": "nonpayable",
      "type": "constructor"
    },
    {
      "inputs": [],
      "name": "EnforcedPause",
      "type": "error"
    },
    {
      "inputs": [],
      "name": "ExpectedPause",
      "type": "error"
    },
    {
      "inputs": [],
      "name": "InsufficientPayment",
      "type": "error"
    },
    {
      "inputs": [],
      "name": "InvalidFee",
      "type": "error"
    },
    {
      "inputs": [],
      "name": "InvalidPrice",
      "type": "error"
    },
    {
      "inputs": [],
      "name": "ListingAlreadyExists",
      "type": "error"
    },
    {
      "inputs": [],
      "name": "ListingAlreadySold",
      "type": "error"
    },
    {
      "inputs": [],
      "name": "ListingNotFound",
      "type": "error"
    },
    {
      "inputs": [],
      "name": "NoBalanceToWithdraw",
      "type": "error"
    },
    {
      "inputs": [
        {
          "internalType": "address",
          "name": "owner",
          "type": "address"
        }
      ],
      "name": "OwnableInvalidOwner",
      "type": "error"
    },
    {
      "inputs": [
        {
          "internalType": "address",
          "name": "account",
          "type": "address"
        }
      ],
      "name": "OwnableUnauthorizedAccount",
      "type": "error"
    },
    {
      "inputs": [],
      "name": "ReentrancyGuardReentrantCall",
      "type": "error"
    },
    {
      "inputs": [],
      "name": "TransferFailed",
      "type": "error"
    },
    {
      "anonymous": false,
      "inputs": [
        {
          "indexed": true,
          "internalType": "address",
          "name": "recipient",
          "type": "address"
        },
        {
          "indexed": false,
          "internalType": "uint256",
          "name": "amount",
          "type": "uint256"
        }
      ],
      "name": "FundsWithdrawn",
      "type": "event"
    },
    {
      "anonymous": false,
      "inputs": [
        {
          "indexed": true,
          "internalType": "string",
          "name": "listingId",
          "type": "string"
        },
        {
          "indexed": true,
          "internalType": "address",
          "name": "seller",
          "type": "address"
        },
        {
          "indexed": false,
          "internalType": "uint256",
          "name": "price",
          "type": "uint256"
        },
        {
          "indexed": false,
          "internalType": "bytes32",
          "name": "aiProofHash",
          "type": "bytes32"
        }
      ],
      "name": "ListingCreated",
      "type": "event"
    },
    {
      "anonymous": false,
      "inputs": [
        {
          "indexed": true,
          "internalType": "string",
          "name": "listingId",
          "type": "string"
        },
        {
          "indexed": true,
          "internalType": "address",
          "name": "buyer",
          "type": "address"
        },
        {
          "indexed": true,
          "internalType": "address",
          "name": "seller",
          "type": "address"
        },
        {
          "indexed": false,
          "internalType": "uint256",
          "name": "price",
          "type": "uint256"
        }
      ],
      "name": "ListingPurchased",
      "type": "event"
    },
    {
      "anonymous": false,
      "inputs": [
        {
          "indexed": false,
          "internalType": "uint256",
          "name": "oldFee",
          "type": "uint256"
        },
        {
          "indexed": false,
          "internalType": "uint256",
          "name": "newFee",
          "type": "uint256"
        }
      ],
      "name": "MarketplaceFeeUpdated",
      "type": "event"
    },
    {
      "anonymous": false,
      "inputs": [
        {
          "indexed": true,
          "internalType": "address",
          "name": "previousOwner",
          "type": "address"
        },
        {
          "indexed": true,
          "internalType": "address",
          "name": "newOwner",
          "type": "address"
        }
      ],
      "name": "OwnershipTransferred",
      "type": "event"
    },
    {
      "anonymous": false,
      "inputs": [
        {
          "indexed": false,
          "internalType": "address",
          "name": "account",
          "type": "address"
        }
      ],
      "name": "Paused",
      "type": "event"
    },
    {
      "anonymous": false,
      "inputs": [
        {
          "indexed": false,
          "internalType": "address",
          "name": "account",
          "type": "address"
        }
      ],
      "name": "Unpaused",
      "type": "event"
    },
    {
      "stateMutability": "payable",
      "type": "fallback"
    },
    {
      "inputs": [],
      "name": "MAX_FEE",
      "outputs": [
        {
          "internalType": "uint256",
          "name": "",
          "type": "uint256"
        }
      ],
      "stateMutability": "view",
      "type": "function"
    },
    {
      "inputs": [
        {
          "internalType": "string",
          "name": "listingId",
          "type": "string"
        },
        {
          "internalType": "uint256",
          "name": "price",
          "type": "uint256"
        },
        {
          "internalType": "bytes32",
          "name": "aiProofHash",
          "type": "bytes32"
        }
      ],
      "name": "createListing",
      "outputs": [],
      "stateMutability": "nonpayable",
      "type": "function"
    },
    {
      "inputs": [
        {
          "internalType": "string",
          "name": "listingId",
          "type": "string"
        }
      ],
      "name": "getListing",
      "outputs": [
        {
          "components": [
            {
              "internalType": "address",
              "name": "seller",
              "type": "address"
            },
            {
              "internalType": "uint256",
              "name": "price",
              "type": "uint256"
            },
            {
              "internalType": "bool",
              "name": "sold",
              "type": "bool"
            },
            {
              "internalType": "bytes32",
              "name": "aiProofHash",
              "type": "bytes32"
            },
            {
              "internalType": "uint256",
              "name": "createdAt",
              "type": "uint256"
            }
          ],
          "internalType": "struct VerifiableMarketplace.Listing",
          "name": "",
          "type": "tuple"
        }
      ],
      "stateMutability": "view",
      "type": "function"
    },
    {
      "inputs": [],
      "name": "isPaused",
      "outputs": [
        {
          "internalType": "bool",
          "name": "",
          "type": "bool"
        }
      ],
      "stateMutability": "view",
      "type": "function"
    },
    {
      "inputs": [
        {
          "internalType": "string",
          "name": "",
          "type": "string"
        }
      ],
      "name": "listings",
      "outputs": [
        {
          "internalType": "address",
          "name": "seller",
          "type": "address"
        },
        {
          "internalType": "uint256",
          "name": "price",
          "type": "uint256"
        },
        {
          "internalType": "bool",
          "name": "sold",
          "type": "bool"
        },
        {
          "internalType": "bytes32",
          "name": "aiProofHash",
          "type": "bytes32"
        },
        {
          "internalType": "uint256",
          "name": "createdAt",
          "type": "uint256"
        }
      ],
      "stateMutability": "view",
      "type": "function"
    },
    {
      "inputs": [],
      "name": "marketplaceFee",
      "outputs": [
        {
          "internalType": "uint256",
          "name": "",
          "type": "uint256"
        }
      ],
      "stateMutability": "view",
      "type": "function"
    },
    {
      "inputs": [],
      "name": "owner",
      "outputs": [
        {
          "internalType": "address",
          "name": "",
          "type": "address"
        }
      ],
      "stateMutability": "view",
      "type": "function"
    },
    {
      "inputs": [],
      "name": "pause",
      "outputs": [],
      "stateMutability": "nonpayable",
      "type": "function"
    },
    {
      "inputs": [],
      "name": "paused",
      "outputs": [
        {
          "internalType": "bool",
          "name": "",
          "type": "bool"
        }
      ],
      "stateMutability": "view",
      "type": "function"
    },
    {
      "inputs": [
        {
          "internalType": "string",
          "name": "listingId",
          "type": "string"
        }
      ],
      "name": "purchaseListing",
      "outputs": [],
      "stateMutability": "payable",
      "type": "function"
    },
    {
      "inputs": [],
      "name": "renounceOwnership",
      "outputs": [],
      "stateMutability": "nonpayable",
      "type": "function"
    },
    {
      "inputs": [
        {
          "internalType": "address",
          "name": "",
          "type": "address"
        }
      ],
      "name": "sellerBalances",
      "outputs": [
        {
          "internalType": "uint256",
          "name": "",
          "type": "uint256"
        }
      ],
      "stateMutability": "view",
      "type": "function"
    },
    {
      "inputs": [
        {
          "internalType": "address",
          "name": "newOwner",
          "type": "address"
        }
      ],
      "name": "transferOwnership",
      "outputs": [],
      "stateMutability": "nonpayable",
      "type": "function"
    },
    {
      "inputs": [],
      "name": "unpause",
      "outputs": [],
      "stateMutability": "nonpayable",
      "type": "function"
    },
    {
      "inputs": [
        {
          "internalType": "uint256",
          "name": "newFee",
          "type": "uint256"
        }
      ],
      "name": "updateMarketplaceFee",
      "outputs": [],
      "stateMutability": "nonpayable",
      "type": "function"
    },
    {
      "inputs": [],
      "name": "withdrawFees",
      "outputs": [],
      "stateMutability": "nonpayable",
      "type": "function"
    },
    {
      "stateMutability": "payable",
      "type": "receive"
    }
  ],
  "bytecode": "0x6080604052346200002657620000146200006c565b6040516111fa6200023182396111fa90f35b5f80fd5b905f19905b9181191691161790565b6200004962000049620000499290565b90565b906200006062000049620000689262000039565b82546200002a565b9055565b620000773362000087565b6200008560fa60036200004c565b565b62000085906200009e565b62000049600162000039565b620000a99062000107565b62000085620000b762000092565b60016200004c565b620000cf62000049620000499290565b6001600160a01b031690565b6200004990620000bf565b620000f190620000cf565b9052565b602081019291620000859190620000e6565b620001125f620000db565b6200011d81620000cf565b6200012883620000cf565b146200013a57506200008590620001d3565b62000160906200014960405190565b631e4fbdf760e01b815291829160048301620000f5565b0390fd5b6200004990620000cf565b62000049905462000164565b906001600160a01b03906200002f565b6200004990620000cf906001600160a01b031682565b62000049906200018b565b6200004990620001a1565b90620001cb620000496200006892620001ac565b82546200017b565b620001ff620001f8620001e65f6200016f565b620001f2845f620001b7565b620001ac565b91620001ac565b907f8be0079c531659141344cd1fd0a4f28419497f9722a3daafe3b4186f6b6457e06200022b60405190565b5f90a356fe60806040526004361015610018575b361561001657005b005b5f3560e01c806330eb80cd1461011257806335c87d601461010d5780633f4ba83a14610108578063476343ee146101035780634ae9ec30146100fe5780635c975abb146100d6578063607eb4e4146100f95780636a166964146100f4578063715018a6146100ef57806375e6daa3146100ea57806377dec6c3146100e55780638456cb59146100e05780638da5cb5b146100db578063b187bd26146100d6578063bc063e1a146100d15763f2fde38b0361000e57610708565b6106ed565b6102ee565b610698565b610680565b61064f565b61041f565b610407565b6103ec565b6103b5565b6102c6565b610220565b610208565b6101e2565b61014a565b805b0361012057565b5f80fd5b9050359061013182610117565b565b906020828203126101205761014791610124565b90565b346101205761016261015d366004610133565b6107e6565b604051005b0390f35b909182601f830112156101205781359167ffffffffffffffff831161012057602001926001830284011161012057565b9190916060818403126101205780359167ffffffffffffffff8311610120576101c98461014794840161016b565b93909460406101db8260208701610124565b9401610124565b34610120576101626101f536600461019b565b92919091610a65565b5f91031261012057565b34610120576102183660046101fe565b610162610a84565b34610120576102303660046101fe565b610162610baf565b9060208282031261012057813567ffffffffffffffff81116101205761025e920161016b565b9091565b6001600160a01b031690565b80516001600160a01b031682526101319190608090819061029460208201516020860152565b6040818101511515908501526102af60608201516060860152565b0151910152565b60a081019291610131919061026e565b34610120576101676102e26102dc366004610238565b90610c6c565b604051918291826102b6565b34610120576102fe3660046101fe565b61016761030d60025460ff1690565b60405191829182901515815260200190565b6001600160a01b038116610119565b905035906101318261031f565b90602082820312610120576101479161032e565b61014790610262906001600160a01b031682565b6101479061034f565b61014790610363565b9061037f9061036c565b5f5260205260405f2090565b610147916008021c81565b90610147915461038b565b5f6103b0610147926005610375565b610396565b34610120576101676103d06103cb36600461033b565b6103a1565b6040515b9182918290815260200190565b6101475f6003610396565b34610120576103fc3660046101fe565b6101676103d06103e1565b34610120576104173660046101fe565b610162610ca5565b61016261042d366004610238565b90610f51565b634e487b7160e01b5f52604160045260245ffd5b90601f01601f1916810190811067ffffffffffffffff82111761046957604052565b610433565b9061013161047b60405190565b9283610447565b67ffffffffffffffff811161046957602090601f01601f19160190565b0190565b90825f939282370152565b909291926104c36104be82610482565b61046e565b9381855281830111610120576101319160208501906104a3565b9080601f8301121561012057816020610147933591016104ae565b9060208282031261012057813567ffffffffffffffff81116101205761014792016104dd565b5f5b83811061052f5750505f910152565b8181015183820152602001610520565b61049f61055792602092610551815190565b94859290565b9384910161051e565b61057061049f916020949361053f565b918252565b61058a61058160405190565b92839283610560565b03902090565b61014791610575565b61014790610262565b6101479054610599565b6101479081565b61014790546105ac565b6105c8906004610590565b6105d1816105a2565b916105de600183016105b3565b916105ed600282015460ff1690565b9161014760046105ff600385016105b3565b93016105b3565b909594926101319461064461064b9261063b60809661063460a088019c5f8901906001600160a01b03169052565b6020870152565b15156040850152565b6060830152565b0152565b346101205761016761066a6106653660046104f8565b6105bd565b9161067795939560405190565b95869586610606565b34610120576106903660046101fe565b610162610f6e565b34610120576106a83660046101fe565b6101676106b3610f76565b604051918291826001600160a01b03909116815260200190565b6101476101476101479290565b6101476103e86106cd565b6101476106da565b34610120576106fd3660046101fe565b6101676103d06106e5565b346101205761016261071b36600461033b565b610fe8565b6101319061072c610ff1565b61076e565b905f19905b9181191691161790565b90610750610147610757926106cd565b8254610731565b9055565b9081526040810192916101319160200152565b6107796101476106da565b81116107d0577f936008f1e981d6f48d4a529714c27d74d644750a1d215451212ce0f2476f2fbc906107ab60036105b3565b6107b6826003610740565b6107cb6107c260405190565b9283928361075b565b0390a1565b6040516358d620b360e01b8152600490fd5b0390fd5b61013190610720565b906101319392916107fe61103d565b61095e565b909161049f90839080936104a3565b610570906020949361049f93610803565b909161058a9061083260405190565b93849384610812565b909161014792610823565b6102626101476101479290565b61014790610846565b61014760a061046e565b906001600160a01b0390610736565b906108856101476107579261036c565b8254610866565b9060ff90610736565b906108a561014761075792151590565b825461088c565b906107506101476107579290565b600461092d6080610131946108e16108db5f8301516001600160a01b031690565b86610875565b6108f86108ef602083015190565b60018701610740565b6109116109086040830151151590565b60028701610895565b61092861091f606083015190565b600387016108ac565b015190565b9101610740565b90610131916108ba565b909161014792610803565b61058a61095560405190565b9283928361093e565b92919261096a5f6106cd565b8414610a545760046109875f61098185858561083b565b016105a2565b6109a36109966102625f610853565b916001600160a01b031690565b03610a35579181610a147f26cf7659d8e7a5e796906c479982e0aef4b09a89280a426c9f6a584c1e46a61894610a0f84610a19966109df61085c565b338152936109ee8c6020870152565b5f60408601526109ff8b6060870152565b610a0a426080870152565b61083b565b610934565b610949565b91610a233361036c565b93610a306107c260405190565b0390a3565b6107e290610a4260405190565b635d2cdd2160e11b8152918291820190565b60405162bfc92160e01b8152600490fd5b906101319392916107ef565b610a79610ff1565b61013161013161109b565b610131610a71565b610a94610ff1565b610131610a9f6110ad565b610aa7610ada565b6101316110ed565b906105706104be83610482565b3d15610ad557610acb3d610aaf565b903d5f602084013e565b606090565b610af4610aef610ae8610f76565b6005610375565b6105b3565b610afd5f6106cd565b8114610b9d57610b1f610b0f5f6106cd565b610b1a610ae8610f76565b610740565b610b445f80610b2c610f76565b6040518581805b03925af1610b3f610abc565b501590565b610b8b577feaff4b37086828766ad3268786972c0cd24259d4c87a80f9d3963a3c3d999b0d610b86610b7c610b77610f76565b61036c565b926103d460405190565b0390a2565b6040516312171d8360e31b8152600490fd5b60405163177b02e160e31b8152600490fd5b610131610a8c565b610bbf61085c565b905f825260208080808086015f8152015f8152015f8152015f905250565b610147610bb7565b90610131610c5c6004610bf661085c565b94610c10610c03826105a2565b6001600160a01b03168752565b610c26610c1f600183016105b3565b6020880152565b610c40610c37600283015460ff1690565b15156040880152565b610c56610c4f600383016105b3565b6060880152565b016105b3565b6080840152565b61014790610be5565b61014791610c8491610c7c610bdd565b50600461083b565b610c63565b610c91610ff1565b610131610131610ca05f610853565b6110ff565b610131610c89565b90610aa791610cba6110ad565b9061013191610cc761103d565b610d35565b634e487b7160e01b5f52601160045260245ffd5b81810292918115918404141715610cf357565b610ccc565b634e487b7160e01b5f52601260045260245ffd5b8115610d16570490565b610cf8565b91908203918211610cf357565b91908201809211610cf357565b90600490610d4761014782858561083b565b610d50816105a2565b610d5f6109966102625f610853565b14610f325760028101805460ff16610f1357610d80610147600184016105b3565b3410610ef4576001610d9191610895565b6001810192610dc6610db5610da5866105b3565b610daf60036105b3565b90610ce0565b610dc06127106106cd565b90610d0c565b610dfc5f8080610dde85610dd98b6105b3565b610d1b565b960195610dea876105a2565b90610df460405190565b908180610b33565b610ee757610e2790610e21610e12610ae8610f76565b91610e1c836105b3565b610d28565b90610740565b610e33610147856105b3565b3411610e9c575b5090610e51610e4b610e57936105a2565b936105b3565b93610949565b7fe67a49d79384867fbf08d5387807fe2bc4146da7ad6a98cf7eff9678bb0d95e7610e97610e8d610e873361036c565b9461036c565b946103d460405190565b0390a4565b610ec35f80610eb3610ead886105b3565b34610d1b565b6040515f91335af1610b3f610abc565b15610e3a576107e290610ed560405190565b6312171d8360e31b8152918291820190565b6107e282610ed560405190565b6107e284610f0160405190565b63cd1c886760e01b8152918291820190565b6107e284610f2060405190565b637e78fb9360e11b8152918291820190565b6107e283610f3f60405190565b630fc87cc760e31b8152918291820190565b9061013191610cad565b610f63610ff1565b610131610131611191565b610131610f5b565b6101475f6105a2565b61013190610f8b610ff1565b610f945f610853565b6001600160a01b0381166001600160a01b03831614610fb75750610131906110ff565b6107e290610fc460405190565b631e4fbdf760e01b8152918291600483016001600160a01b03909116815260200190565b61013190610f7f565b610ff9610f76565b339061100482610996565b0361100c5750565b6107e29061101960405190565b63118cdaa760e01b8152918291600483016001600160a01b03909116815260200190565b60025460ff1661104957565b60405163d93c066560e01b8152600490fd5b611063611199565b6101316110715f6002610895565b7f5db9ee0a495bf2e6ff9c91a7834c1ba4fdd244a5e8aa4e537bd38aeae4b073aa6107cb336106b3565b61013161105b565b61014760026106cd565b6110b760016105b3565b6110bf6110a3565b9081146110d157610131906001610740565b604051633ee5aeb560e01b8152600490fd5b61014760016106cd565b6101316110f86110e3565b6001610740565b61111e61111861110e5f6105a2565b610b77845f610875565b9161036c565b907f8be0079c531659141344cd1fd0a4f28419497f9722a3daafe3b4186f6b6457e061114960405190565b8080610a30565b61115861103d565b61013161116760016002610895565b7f62e78cea01bee320cd4e420270b5ea74000d11b0c9f74754ebdbfc544b05a2586107cb336106b3565b610131611150565b6111ac6111a860025460ff1690565b1590565b6111b257565b604051638dfc202b60e01b8152600490fdfea2646970667358221220e9b1a64dd753d02f1a9ceccc4960d5a08ee0ed76244c5e98ff57f56d1de5752064736f6c63430008180033",
  "linkReferences": {},
  "deployedLinkReferences": {},
  "immutableReferences": {},
  "inputSourceName": "project/contracts/VerifiableMarketplace.sol",
  "buildInfoId": "solc-0_8_24-cf76da5b5577a2f3fa0d0f0dcf60dbc98751ef36"
}