{"project/contracts/VerifiableMarketplace.sol":{"VerifiableMarketplace":{"abi":[{"inputs":[],"stateMutability":"nonpayable","type":"constructor"},{"inputs":[],"name":"EnforcedPause","type":"error"},{"inputs":[],"name":"ExpectedPause","type":"error"},{"inputs":[],"name":"InsufficientPayment","type":"error"},{"inputs":[],"name":"InvalidFee","type":"error"},{"inputs":[],"name":"InvalidPrice","type":"error"},{"inputs":[],"name":"ListingAlreadyExists","type":"error"},{"inputs":[],"name":"ListingAlreadySold","type":"error"},{"inputs":[],"name":"ListingNotFound","type":"error"},{"inputs":[],"name":"NoBalanceToWithdraw","type":"error"},{"inputs":[{"internalType":"address","name":"owner","type":"address"}],"name":"OwnableInvalidOwner","type":"error"},{"inputs":[{"internalType":"address","name":"account","type":"address"}],"name":"OwnableUnauthorizedAccount","type":"error"},{"inputs":[],"name":"ReentrancyGuardReentrantCall","type":"error"},{"inputs":[],"name":"TransferFailed","type":"error"},{"anonymous":false,"inputs":[{"indexed":true,"internalType":"address","name":"recipient","type":"address"},{"indexed":false,"internalType":"uint256","name":"amount","type":"uint256"}],"name":"FundsWithdrawn","type":"event"},{"anonymous":false,"inputs":[{"indexed":true,"internalType":"string","name":"listingId","type":"string"},{"indexed":true,"internalType":"address","name":"seller","type":"address"},{"indexed":false,"internalType":"uint256","name":"price","type":"uint256"},{"indexed":false,"internalType":"bytes32","name":"aiProofHash","type":"bytes32"}],"name":"ListingCreated","type":"event"},{"anonymous":false,"inputs":[{"indexed":true,"internalType":"string","name":"listingId","type":"string"},{"indexed":true,"internalType":"address","name":"buyer","type":"address"},{"indexed":true,"internalType":"address","name":"seller","type":"address"},{"indexed":false,"internalType":"uint256","name":"price","type":"uint256"}],"name":"ListingPurchased","type":"event"},{"anonymous":false,"inputs":[{"indexed":false,"internalType":"uint256","name":"oldFee","type":"uint256"},{"indexed":false,"internalType":"uint256","name":"newFee","type":"uint256"}],"name":"MarketplaceFeeUpdated","type":"event"},{"anonymous":false,"inputs":[{"indexed":true,"internalType":"address","name":"previousOwner","type":"address"},{"indexed":true,"internalType":"address","name":"newOwner","type":"address"}],"name":"OwnershipTransferred","type":"event"},{"anonymous":false,"inputs":[{"indexed":false,"internalType":"address","name":"account","type":"address"}],"name":"Paused","type":"event"},{"anonymous":false,"inputs":[{"indexed":false,"internalType":"address","name":"account","type":"address"}],"name":"Unpaused","type":"event"},{"stateMutability":"payable","type":"fallback"},{"inputs":[],"name":"MAX_FEE","outputs":[{"internalType":"uint256","name":"","type":"uint256"}],"stateMutability":"view","type":"function"},{"inputs":[{"internalType":"string","name":"listingId","type":"string"},{"internalType":"uint256","name":"price","type":"uint256"},{"internalType":"bytes32","name":"aiProofHash","type":"bytes32"}],"name":"createListing","outputs":[],"stateMutability":"nonpayable","type":"function"},{"inputs":[{"internalType":"string","name":"listingId","type":"string"}],"name":"getListing","outputs":[{"components":[{"internalType":"address","name":"seller","type":"address"},{"internalType":"uint256","name":"price","type":"uint256"},{"internalType":"bool","name":"sold","type":"bool"},{"internalType":"bytes32","name":"aiProofHash","type":"bytes32"},{"internalType":"uint256","name":"createdAt","type":"uint256"}],"internalType":"struct VerifiableMarketplace.Listing","name":"","type":"tuple"}],"stateMutability":"view","type":"function"},{"inputs":[],"name":"isPaused","outputs":[{"internalType":"bool","name":"","type":"bool"}],"stateMutability":"view","type":"function"},{"inputs":[{"internalType":"string","name":"","type":"string"}],"name":"listings","outputs":[{"internalType":"address","name":"seller","type":"address"},{"internalType":"uint256","name":"price","type":"uint256"},{"internalType":"bool","name":"sold","type":"bool"},{"internalType":"bytes32","name":"aiProofHash","type":"bytes32"},{"internalType":"uint256","name":"createdAt","type":"uint256"}],"stateMutability":"view","type":"function"},{"inputs":[],"name":"marketplaceFee","outputs":[{"internalType":"uint256","name":"","type":"uint256"}],"stateMutability":"view","type":"function"},{"inputs":[],"name":"owner","outputs":[{"internalType":"address","name":"","type":"address"}],"stateMutability":"view","type":"function"},{"inputs":[],"name":"pause","outputs":[],"stateMutability":"nonpayable","type":"function"},{"inputs":[],"name":"paused","outputs":[{"internalType":"bool","name":"","type":"bool"}],"stateMutability":"view","type":"function"},{"inputs":[{"internalType":"string","name":"listingId","type":"string"}],"name":"purchaseListing","outputs":[],"stateMutability":"payable","type":"function"},{"inputs":[],"name":"renounceOwnership","outputs":[],"stateMutability":"nonpayable","type":"function"},{"inputs":[{"internalType":"address","name":"","type":"address"}],"name":"sellerBalances","outputs":[{"internalType":"uint256","name":"","type":"uint256"}],"stateMutability":"view","type":"function"},{"inputs":[{"internalType":"address","name":"newOwner","type":"address"}],"name":"transferOwnership","outputs":[],"stateMutability":"nonpayable","type":"function"},{"inputs":[],"name":"unpause","outputs":[],"stateMutability":"nonpayable","type":"function"},{"inputs":[{"internalType":"uint256","name":"newFee","type":"uint256"}],"name":"updateMarketplaceFee","outputs":[],"stateMutability":"nonpayable","type":"function"},{"inputs":[],"name":"withdrawFees","outputs":[],"stateMutability":"nonpayable","type":"function"},{"stateMutability":"payable","type":"receive"}],"evm":{"bytecode":{"linkReferences":{},"object":"6080604052346200002657620000146200006c565b6040516111fa6200023182396111fa90f35b5f80fd5b905f19905b9181191691161790565b6200004962000049620000499290565b90565b906200006062000049620000689262000039565b82546200002a565b9055565b620000773362000087565b6200008560fa60036200004c565b565b62000085906200009e565b62000049600162000039565b620000a99062000107565b62000085620000b762000092565b60016200004c565b620000cf62000049620000499290565b6001600160a01b031690565b6200004990620000bf565b620000f190620000cf565b9052565b602081019291620000859190620000e6565b620001125f620000db565b6200011d81620000cf565b6200012883620000cf565b146200013a57506200008590620001d3565b62000160906200014960405190565b631e4fbdf760e01b815291829160048301620000f5565b0390fd5b6200004990620000cf565b62000049905462000164565b906001600160a01b03906200002f565b6200004990620000cf906001600160a01b031682565b62000049906200018b565b6200004990620001a1565b90620001cb620000496200006892620001ac565b82546200017b565b620001ff620001f8620001e65f6200016f565b620001f2845f620001b7565b620001ac565b91620001ac565b907f8be0079c531659141344cd1fd0a4f28419497f9722a3daafe3b4186f6b6457e06200022b60405190565b5f90a356fe60806040526004361015610018575b361561001657005b005b5f3560e01c806330eb80cd1461011257806335c87d601461010d5780633f4ba83a14610108578063476343ee146101035780634ae9ec30146100fe5780635c975abb146100d6578063607eb4e4146100f95780636a166964146100f4578063715018a6146100ef57806375e6daa3146100ea57806377dec6c3146100e55780638456cb59146100e05780638da5cb5b146100db578063b187bd26146100d6578063bc063e1a146100d15763f2fde38b0361000e57610708565b6106ed565b6102ee565b610698565b610680565b61064f565b61041f565b610407565b6103ec565b6103b5565b6102c6565b610220565b610208565b6101e2565b61014a565b805b0361012057565b5f80fd5b9050359061013182610117565b565b906020828203126101205761014791610124565b90565b346101205761016261015d366004610133565b6107e6565b604051005b0390f35b909182601f830112156101205781359167ffffffffffffffff831161012057602001926001830284011161012057565b9190916060818403126101205780359167ffffffffffffffff8311610120576101c98461014794840161016b565b93909460406101db8260208701610124565b9401610124565b34610120576101626101f536600461019b565b92919091610a65565b5f91031261012057565b34610120576102183660046101fe565b610162610a84565b34610120576102303660046101fe565b610162610baf565b9060208282031261012057813567ffffffffffffffff81116101205761025e920161016b565b9091565b6001600160a01b031690565b80516001600160a01b031682526101319190608090819061029460208201516020860152565b6040818101511515908501526102af60608201516060860152565b0151910152565b60a081019291610131919061026e565b34610120576101676102e26102dc366004610238565b90610c6c565b604051918291826102b6565b34610120576102fe3660046101fe565b61016761030d60025460ff1690565b60405191829182901515815260200190565b6001600160a01b038116610119565b905035906101318261031f565b90602082820312610120576101479161032e565b61014790610262906001600160a01b031682565b6101479061034f565b61014790610363565b9061037f9061036c565b5f5260205260405f2090565b610147916008021c81565b90610147915461038b565b5f6103b0610147926005610375565b610396565b34610120576101676103d06103cb36600461033b565b6103a1565b6040515b9182918290815260200190565b6101475f6003610396565b34610120576103fc3660046101fe565b6101676103d06103e1565b34610120576104173660046101fe565b610162610ca5565b61016261042d366004610238565b90610f51565b634e487b7160e01b5f52604160045260245ffd5b90601f01601f1916810190811067ffffffffffffffff82111761046957604052565b610433565b9061013161047b60405190565b9283610447565b67ffffffffffffffff811161046957602090601f01601f19160190565b0190565b90825f939282370152565b909291926104c36104be82610482565b61046e565b9381855281830111610120576101319160208501906104a3565b9080601f8301121561012057816020610147933591016104ae565b9060208282031261012057813567ffffffffffffffff81116101205761014792016104dd565b5f5b83811061052f5750505f910152565b8181015183820152602001610520565b61049f61055792602092610551815190565b94859290565b9384910161051e565b61057061049f916020949361053f565b918252565b61058a61058160405190565b92839283610560565b03902090565b61014791610575565b61014790610262565b6101479054610599565b6101479081565b61014790546105ac565b6105c8906004610590565b6105d1816105a2565b916105de600183016105b3565b916105ed600282015460ff1690565b9161014760046105ff600385016105b3565b93016105b3565b909594926101319461064461064b9261063b60809661063460a088019c5f8901906001600160a01b03169052565b6020870152565b15156040850152565b6060830152565b0152565b346101205761016761066a6106653660046104f8565b6105bd565b9161067795939560405190565b95869586610606565b34610120576106903660046101fe565b610162610f6e565b34610120576106a83660046101fe565b6101676106b3610f76565b604051918291826001600160a01b03909116815260200190565b6101476101476101479290565b6101476103e86106cd565b6101476106da565b34610120576106fd3660046101fe565b6101676103d06106e5565b346101205761016261071b36600461033b565b610fe8565b6101319061072c610ff1565b61076e565b905f19905b9181191691161790565b90610750610147610757926106cd565b8254610731565b9055565b9081526040810192916101319160200152565b6107796101476106da565b81116107d0577f936008f1e981d6f48d4a529714c27d74d644750a1d215451212ce0f2476f2fbc906107ab60036105b3565b6107b6826003610740565b6107cb6107c260405190565b9283928361075b565b0390a1565b6040516358d620b360e01b8152600490fd5b0390fd5b61013190610720565b906101319392916107fe61103d565b61095e565b909161049f90839080936104a3565b610570906020949361049f93610803565b909161058a9061083260405190565b93849384610812565b909161014792610823565b6102626101476101479290565b61014790610846565b61014760a061046e565b906001600160a01b0390610736565b906108856101476107579261036c565b8254610866565b9060ff90610736565b906108a561014761075792151590565b825461088c565b906107506101476107579290565b600461092d6080610131946108e16108db5f8301516001600160a01b031690565b86610875565b6108f86108ef602083015190565b60018701610740565b6109116109086040830151151590565b60028701610895565b61092861091f606083015190565b600387016108ac565b015190565b9101610740565b90610131916108ba565b909161014792610803565b61058a61095560405190565b9283928361093e565b92919261096a5f6106cd565b8414610a545760046109875f61098185858561083b565b016105a2565b6109a36109966102625f610853565b916001600160a01b031690565b03610a35579181610a147f26cf7659d8e7a5e796906c479982e0aef4b09a89280a426c9f6a584c1e46a61894610a0f84610a19966109df61085c565b338152936109ee8c6020870152565b5f60408601526109ff8b6060870152565b610a0a426080870152565b61083b565b610934565b610949565b91610a233361036c565b93610a306107c260405190565b0390a3565b6107e290610a4260405190565b635d2cdd2160e11b8152918291820190565b60405162bfc92160e01b8152600490fd5b906101319392916107ef565b610a79610ff1565b61013161013161109b565b610131610a71565b610a94610ff1565b610131610a9f6110ad565b610aa7610ada565b6101316110ed565b906105706104be83610482565b3d15610ad557610acb3d610aaf565b903d5f602084013e565b606090565b610af4610aef610ae8610f76565b6005610375565b6105b3565b610afd5f6106cd565b8114610b9d57610b1f610b0f5f6106cd565b610b1a610ae8610f76565b610740565b610b445f80610b2c610f76565b6040518581805b03925af1610b3f610abc565b501590565b610b8b577feaff4b37086828766ad3268786972c0cd24259d4c87a80f9d3963a3c3d999b0d610b86610b7c610b77610f76565b61036c565b926103d460405190565b0390a2565b6040516312171d8360e31b8152600490fd5b60405163177b02e160e31b8152600490fd5b610131610a8c565b610bbf61085c565b905f825260208080808086015f8152015f8152015f8152015f905250565b610147610bb7565b90610131610c5c6004610bf661085c565b94610c10610c03826105a2565b6001600160a01b03168752565b610c26610c1f600183016105b3565b6020880152565b610c40610c37600283015460ff1690565b15156040880152565b610c56610c4f600383016105b3565b6060880152565b016105b3565b6080840152565b61014790610be5565b61014791610c8491610c7c610bdd565b50600461083b565b610c63565b610c91610ff1565b610131610131610ca05f610853565b6110ff565b610131610c89565b90610aa791610cba6110ad565b9061013191610cc761103d565b610d35565b634e487b7160e01b5f52601160045260245ffd5b81810292918115918404141715610cf357565b610ccc565b634e487b7160e01b5f52601260045260245ffd5b8115610d16570490565b610cf8565b91908203918211610cf357565b91908201809211610cf357565b90600490610d4761014782858561083b565b610d50816105a2565b610d5f6109966102625f610853565b14610f325760028101805460ff16610f1357610d80610147600184016105b3565b3410610ef4576001610d9191610895565b6001810192610dc6610db5610da5866105b3565b610daf60036105b3565b90610ce0565b610dc06127106106cd565b90610d0c565b610dfc5f8080610dde85610dd98b6105b3565b610d1b565b960195610dea876105a2565b90610df460405190565b908180610b33565b610ee757610e2790610e21610e12610ae8610f76565b91610e1c836105b3565b610d28565b90610740565b610e33610147856105b3565b3411610e9c575b5090610e51610e4b610e57936105a2565b936105b3565b93610949565b7fe67a49d79384867fbf08d5387807fe2bc4146da7ad6a98cf7eff9678bb0d95e7610e97610e8d610e873361036c565b9461036c565b946103d460405190565b0390a4565b610ec35f80610eb3610ead886105b3565b34610d1b565b6040515f91335af1610b3f610abc565b15610e3a576107e290610ed560405190565b6312171d8360e31b8152918291820190565b6107e282610ed560405190565b6107e284610f0160405190565b63cd1c886760e01b8152918291820190565b6107e284610f2060405190565b637e78fb9360e11b8152918291820190565b6107e283610f3f60405190565b630fc87cc760e31b8152918291820190565b9061013191610cad565b610f63610ff1565b610131610131611191565b610131610f5b565b6101475f6105a2565b61013190610f8b610ff1565b610f945f610853565b6001600160a01b0381166001600160a01b03831614610fb75750610131906110ff565b6107e290610fc460405190565b631e4fbdf760e01b8152918291600483016001600160a01b03909116815260200190565b61013190610f7f565b610ff9610f76565b339061100482610996565b0361100c5750565b6107e29061101960405190565b63118cdaa760e01b8152918291600483016001600160a01b03909116815260200190565b60025460ff1661104957565b60405163d93c066560e01b8152600490fd5b611063611199565b6101316110715f6002610895565b7f5db9ee0a495bf2e6ff9c91a7834c1ba4fdd244a5e8aa4e537bd38aeae4b073aa6107cb336106b3565b61013161105b565b61014760026106cd565b6110b760016105b3565b6110bf6110a3565b9081146110d157610131906001610740565b604051633ee5aeb560e01b8152600490fd5b61014760016106cd565b6101316110f86110e3565b6001610740565b61111e61111861110e5f6105a2565b610b77845f610875565b9161036c565b907f8be0079c531659141344cd1fd0a4f28419497f9722a3daafe3b4186f6b6457e061114960405190565b8080610a30565b61115861103d565b61013161116760016002610895565b7f62e78cea01bee320cd4e420270b5ea74000d11b0c9f74754ebdbfc544b05a2586107cb336106b3565b610131611150565b6111ac6111a860025460ff1690565b1590565b6111b257565b604051638dfc202b60e01b8152600490fdfea2646970667358221220e9b1a64dd753d02f1a9ceccc4960d5a08ee0ed76244c5e98ff57f56d1de5752064736f6c63430008180033","opcodes":"PUSH1 0x80 PUSH1 0x40 MSTORE CALLVALUE PUSH3 0x26 JUMPI PUSH3 0x14 PUSH3 0x6C JUMP JUMPDEST PUSH1 0x40 MLOAD PUSH2 0x11FA PUSH3 0x231 DUP3 CODECOPY PUSH2 0x11FA SWAP1 RETURN JUMPDEST PUSH0 DUP1 REVERT JUMPDEST SWAP1 PUSH0 NOT SWAP1 JUMPDEST SWAP2 DUP2 NOT AND SWAP2 AND OR SWAP1 JUMP JUMPDEST PUSH3 0x49 PUSH3 0x49 PUSH3 0x49 SWAP3 SWAP1 JUMP JUMPDEST SWAP1 JUMP JUMPDEST SWAP1 PUSH3 0x60 PUSH3 0x49 PUSH3 0x68 SWAP3 PUSH3 0x39 JUMP JUMPDEST DUP3 SLOAD PUSH3 0x2A JUMP JUMPDEST SWAP1 SSTORE JUMP JUMPDEST PUSH3 0x77 CALLER PUSH3 0x87 JUMP JUMPDEST PUSH3 0x85 PUSH1 0xFA PUSH1 0x3 PUSH3 0x4C JUMP JUMPDEST JUMP JUMPDEST PUSH3 0x85 SWAP1 PUSH3 0x9E JUMP JUMPDEST PUSH3 0x49 PUSH1 0x1 PUSH3 0x39 JUMP JUMPDEST PUSH3 0xA9 SWAP1 PUSH3 0x107 JUMP JUMPDEST PUSH3 0x85 PUSH3 0xB7 PUSH3 0x92 JUMP JUMPDEST PUSH1 0x1 PUSH3 0x4C JUMP JUMPDEST PUSH3 0xCF PUSH3 0x49 PUSH3 0x49 SWAP3 SWAP1 JUMP JUMPDEST PUSH1 0x1 PUSH1 0x1 PUSH1 0xA0 SHL SUB AND SWAP1 JUMP JUMPDEST PUSH3 0x49 SWAP1 PUSH3 0xBF JUMP JUMPDEST PUSH3 0xF1 SWAP1 PUSH3 0xCF JUMP JUMPDEST SWAP1 MSTORE JUMP JUMPDEST PUSH1 0x20 DUP2 ADD SWAP3 SWAP2 PUSH3 0x85 SWAP2 SWAP1 PUSH3 0xE6 JUMP JUMPDEST PUSH3 0x112 PUSH0 PUSH3 0xDB JUMP JUMPDEST PUSH3 0x11D DUP2 PUSH3 0xCF JUMP JUMPDEST PUSH3 0x128 DUP4 PUSH3 0xCF JUMP JUMPDEST EQ PUSH3 0x13A JUMPI POP PUSH3 0x85 SWAP1 PUSH3 0x1D3 JUMP JUMPDEST PUSH3 0x160 SWAP1 PUSH3 0x149 PUSH1 0x40 MLOAD SWAP1 JUMP JUMPDEST PUSH4 0x1E4FBDF7 PUSH1 0xE0 SHL DUP2 MSTORE SWAP2 DUP3 SWAP2 PUSH1 0x4 DUP4 ADD PUSH3 0xF5 JUMP JUMPDEST SUB SWAP1 REVERT JUMPDEST PUSH3 0x49 SWAP1 PUSH3 0xCF JUMP JUMPDEST PUSH3 0x49 SWAP1 SLOAD PUSH3 0x164 JUMP JUMPDEST SWAP1 PUSH1 0x1 PUSH1 0x1 PUSH1 0xA0 SHL SUB SWAP1 PUSH3 0x2F JUMP JUMPDEST PUSH3 0x49 SWAP1 PUSH3 0xCF SWAP1 PUSH1 0x1 PUSH1 0x1 PUSH1 0xA0 SHL SUB AND DUP3 JUMP JUMPDEST PUSH3 0x49 SWAP1 PUSH3 0x18B JUMP JUMPDEST PUSH3 0x49 SWAP1 PUSH3 0x1A1 JUMP JUMPDEST SWAP1 PUSH3 0x1CB PUSH3 0x49 PUSH3 0x68 SWAP3 PUSH3 0x1AC JUMP JUMPDEST DUP3 SLOAD PUSH3 0x17B JUMP JUMPDEST PUSH3 0x1FF PUSH3 0x1F8 PUSH3 0x1E6 PUSH0 PUSH3 0x16F JUMP JUMPDEST PUSH3 0x1F2 DUP5 PUSH0 PUSH3 0x1B7 JUMP JUMPDEST PUSH3 0x1AC JUMP JUMPDEST SWAP2 PUSH3 0x1AC JUMP JUMPDEST SWAP1 PUSH32 0x8BE0079C531659141344CD1FD0A4F28419497F9722A3DAAFE3B4186F6B6457E0 PUSH3 0x22B PUSH1 0x40 MLOAD SWAP1 JUMP JUMPDEST PUSH0 SWAP1 LOG3 JUMP INVALID PUSH1 0x80 PUSH1 0x40 MSTORE PUSH1 0x4 CALLDATASIZE LT ISZERO PUSH2 0x18 JUMPI JUMPDEST CALLDATASIZE ISZERO PUSH2 0x16 JUMPI STOP JUMPDEST STOP JUMPDEST PUSH0 CALLDATALOAD PUSH1 0xE0 SHR DUP1 PUSH4 0x30EB80CD EQ PUSH2 0x112 JUMPI DUP1 PUSH4 0x35C87D60 EQ PUSH2 0x10D JUMPI DUP1 PUSH4 0x3F4BA83A EQ PUSH2 0x108 JUMPI DUP1 PUSH4 0x476343EE EQ PUSH2 0x103 JUMPI DUP1 PUSH4 0x4AE9EC30 EQ PUSH2 0xFE JUMPI DUP1 PUSH4 0x5C975ABB EQ PUSH2 0xD6 JUMPI DUP1 PUSH4 0x607EB4E4 EQ PUSH2 0xF9 JUMPI DUP1 PUSH4 0x6A166964 EQ PUSH2 0xF4 JUMPI DUP1 PUSH4 0x715018A6 EQ PUSH2 0xEF JUMPI DUP1 PUSH4 0x75E6DAA3 EQ PUSH2 0xEA JUMPI DUP1 PUSH4 0x77DEC6C3 EQ PUSH2 0xE5 JUMPI DUP1 PUSH4 0x8456CB59 EQ PUSH2 0xE0 JUMPI DUP1 PUSH4 0x8DA5CB5B EQ PUSH2 0xDB JUMPI DUP1 PUSH4 0xB187BD26 EQ PUSH2 0xD6 JUMPI DUP1 PUSH4 0xBC063E1A EQ PUSH2 0xD1 JUMPI PUSH4 0xF2FDE38B SUB PUSH2 0xE JUMPI PUSH2 0x708 JUMP JUMPDEST PUSH2 0x6ED JUMP JUMPDEST PUSH2 0x2EE JUMP JUMPDEST PUSH2 0x698 JUMP JUMPDEST PUSH2 0x680 JUMP JUMPDEST PUSH2 0x64F JUMP JUMPDEST PUSH2 0x41F JUMP JUMPDEST PUSH2 0x407 JUMP JUMPDEST PUSH2 0x3EC JUMP JUMPDEST PUSH2 0x3B5 JUMP JUMPDEST PUSH2 0x2C6 JUMP JUMPDEST PUSH2 0x220 JUMP JUMPDEST PUSH2 0x208 JUMP JUMPDEST PUSH2 0x1E2 JUMP JUMPDEST PUSH2 0x14A JUMP JUMPDEST DUP1 JUMPDEST SUB PUSH2 0x120 JUMPI JUMP JUMPDEST PUSH0 DUP1 REVERT JUMPDEST SWAP1 POP CALLDATALOAD SWAP1 PUSH2 0x131 DUP3 PUSH2 0x117 JUMP JUMPDEST JUMP JUMPDEST SWAP1 PUSH1 0x20 DUP3 DUP3 SUB SLT PUSH2 0x120 JUMPI PUSH2 0x147 SWAP2 PUSH2 0x124 JUMP JUMPDEST SWAP1 JUMP JUMPDEST CALLVALUE PUSH2 0x120 JUMPI PUSH2 0x162 PUSH2 0x15D CALLDATASIZE PUSH1 0x4 PUSH2 0x133 JUMP JUMPDEST PUSH2 0x7E6 JUMP JUMPDEST PUSH1 0x40 MLOAD STOP JUMPDEST SUB SWAP1 RETURN JUMPDEST SWAP1 SWAP2 DUP3 PUSH1 0x1F DUP4 ADD SLT ISZERO PUSH2 0x120 JUMPI DUP2 CALLDATALOAD SWAP2 PUSH8 0xFFFFFFFFFFFFFFFF DUP4 GT PUSH2 0x120 JUMPI PUSH1 0x20 ADD SWAP3 PUSH1 0x1 DUP4 MUL DUP5 ADD GT PUSH2 0x120 JUMPI JUMP JUMPDEST SWAP2 SWAP1 SWAP2 PUSH1 0x60 DUP2 DUP5 SUB SLT PUSH2 0x120 JUMPI DUP1 CALLDATALOAD SWAP2 PUSH8 0xFFFFFFFFFFFFFFFF DUP4 GT PUSH2 0x120 JUMPI PUSH2 0x1C9 DUP5 PUSH2 0x147 SWAP5 DUP5 ADD PUSH2 0x16B JUMP JUMPDEST SWAP4 SWAP1 SWAP5 PUSH1 0x40 PUSH2 0x1DB DUP3 PUSH1 0x20 DUP8 ADD PUSH2 0x124 JUMP JUMPDEST SWAP5 ADD PUSH2 0x124 JUMP JUMPDEST CALLVALUE PUSH2 0x120 JUMPI PUSH2 0x162 PUSH2 0x1F5 CALLDATASIZE PUSH1 0x4 PUSH2 0x19B JUMP JUMPDEST SWAP3 SWAP2 SWAP1 SWAP2 PUSH2 0xA65 JUMP JUMPDEST PUSH0 SWAP2 SUB SLT PUSH2 0x120 JUMPI JUMP JUMPDEST CALLVALUE PUSH2 0x120 JUMPI PUSH2 0x218 CALLDATASIZE PUSH1 0x4 PUSH2 0x1FE JUMP JUMPDEST PUSH2 0x162 PUSH2 0xA84 JUMP JUMPDEST CALLVALUE PUSH2 0x120 JUMPI PUSH2 0x230 CALLDATASIZE PUSH1 0x4 PUSH2 0x1FE JUMP JUMPDEST PUSH2 0x162 PUSH2 0xBAF JUMP JUMPDEST SWAP1 PUSH1 0x20 DUP3 DUP3 SUB SLT PUSH2 0x120 JUMPI DUP2 CALLDATALOAD PUSH8 0xFFFFFFFFFFFFFFFF DUP2 GT PUSH2 0x120 JUMPI PUSH2 0x25E SWAP3 ADD PUSH2 0x16B JUMP JUMPDEST SWAP1 SWAP2 JUMP JUMPDEST PUSH1 0x1 PUSH1 0x1 PUSH1 0xA0 SHL SUB AND SWAP1 JUMP JUMPDEST DUP1 MLOAD PUSH1 0x1 PUSH1 0x1 PUSH1 0xA0 SHL SUB AND DUP3 MSTORE PUSH2 0x131 SWAP2 SWAP1 PUSH1 0x80 SWAP1 DUP2 SWAP1 PUSH2 0x294 PUSH1 0x20 DUP3 ADD MLOAD PUSH1 0x20 DUP7 ADD MSTORE JUMP JUMPDEST PUSH1 0x40 DUP2 DUP2 ADD MLOAD ISZERO ISZERO SWAP1 DUP6 ADD MSTORE PUSH2 0x2AF PUSH1 0x60 DUP3 ADD MLOAD PUSH1 0x60 DUP7 ADD MSTORE JUMP JUMPDEST ADD MLOAD SWAP2 ADD MSTORE JUMP JUMPDEST PUSH1 0xA0 DUP2 ADD SWAP3 SWAP2 PUSH2 0x131 SWAP2 SWAP1 PUSH2 0x26E JUMP JUMPDEST CALLVALUE PUSH2 0x120 JUMPI PUSH2 0x167 PUSH2 0x2E2 PUSH2 0x2DC CALLDATASIZE PUSH1 0x4 PUSH2 0x238 JUMP JUMPDEST SWAP1 PUSH2 0xC6C JUMP JUMPDEST PUSH1 0x40 MLOAD SWAP2 DUP3 SWAP2 DUP3 PUSH2 0x2B6 JUMP JUMPDEST CALLVALUE PUSH2 0x120 JUMPI PUSH2 0x2FE CALLDATASIZE PUSH1 0x4 PUSH2 0x1FE JUMP JUMPDEST PUSH2 0x167 PUSH2 0x30D PUSH1 0x2 SLOAD PUSH1 0xFF AND SWAP1 JUMP JUMPDEST PUSH1 0x40 MLOAD SWAP2 DUP3 SWAP2 DUP3 SWAP1 ISZERO ISZERO DUP2 MSTORE PUSH1 0x20 ADD SWAP1 JUMP JUMPDEST PUSH1 0x1 PUSH1 0x1 PUSH1 0xA0 SHL SUB DUP2 AND PUSH2 0x119 JUMP JUMPDEST SWAP1 POP CALLDATALOAD SWAP1 PUSH2 0x131 DUP3 PUSH2 0x31F JUMP JUMPDEST SWAP1 PUSH1 0x20 DUP3 DUP3 SUB SLT PUSH2 0x120 JUMPI PUSH2 0x147 SWAP2 PUSH2 0x32E JUMP JUMPDEST PUSH2 0x147 SWAP1 PUSH2 0x262 SWAP1 PUSH1 0x1 PUSH1 0x1 PUSH1 0xA0 SHL SUB AND DUP3 JUMP JUMPDEST PUSH2 0x147 SWAP1 PUSH2 0x34F JUMP JUMPDEST PUSH2 0x147 SWAP1 PUSH2 0x363 JUMP JUMPDEST SWAP1 PUSH2 0x37F SWAP1 PUSH2 0x36C JUMP JUMPDEST PUSH0 MSTORE PUSH1 0x20 MSTORE PUSH1 0x40 PUSH0 KECCAK256 SWAP1 JUMP JUMPDEST PUSH2 0x147 SWAP2 PUSH1 0x8 MUL SHR DUP2 JUMP JUMPDEST SWAP1 PUSH2 0x147 SWAP2 SLOAD PUSH2 0x38B JUMP JUMPDEST PUSH0 PUSH2 0x3B0 PUSH2 0x147 SWAP3 PUSH1 0x5 PUSH2 0x375 JUMP JUMPDEST PUSH2 0x396 JUMP JUMPDEST CALLVALUE PUSH2 0x120 JUMPI PUSH2 0x167 PUSH2 0x3D0 PUSH2 0x3CB CALLDATASIZE PUSH1 0x4 PUSH2 0x33B JUMP JUMPDEST PUSH2 0x3A1 JUMP JUMPDEST PUSH1 0x40 MLOAD JUMPDEST SWAP2 DUP3 SWAP2 DUP3 SWAP1 DUP2 MSTORE PUSH1 0x20 ADD SWAP1 JUMP JUMPDEST PUSH2 0x147 PUSH0 PUSH1 0x3 PUSH2 0x396 JUMP JUMPDEST CALLVALUE PUSH2 0x120 JUMPI PUSH2 0x3FC CALLDATASIZE PUSH1 0x4 PUSH2 0x1FE JUMP JUMPDEST PUSH2 0x167 PUSH2 0x3D0 PUSH2 0x3E1 JUMP JUMPDEST CALLVALUE PUSH2 0x120 JUMPI PUSH2 0x417 CALLDATASIZE PUSH1 0x4 PUSH2 0x1FE JUMP JUMPDEST PUSH2 0x162 PUSH2 0xCA5 JUMP JUMPDEST PUSH2 0x162 PUSH2 0x42D CALLDATASIZE PUSH1 0x4 PUSH2 0x238 JUMP JUMPDEST SWAP1 PUSH2 0xF51 JUMP JUMPDEST PUSH4 0x4E487B71 PUSH1 0xE0 SHL PUSH0 MSTORE PUSH1 0x41 PUSH1 0x4 MSTORE PUSH1 0x24 PUSH0 REVERT JUMPDEST SWAP1 PUSH1 0x1F ADD PUSH1 0x1F NOT AND DUP2 ADD SWAP1 DUP2 LT PUSH8 0xFFFFFFFFFFFFFFFF DUP3 GT OR PUSH2 0x469 JUMPI PUSH1 0x40 MSTORE JUMP JUMPDEST PUSH2 0x433 JUMP JUMPDEST SWAP1 PUSH2 0x131 PUSH2 0x47B PUSH1 0x40 MLOAD SWAP1 JUMP JUMPDEST SWAP3 DUP4 PUSH2 0x447 JUMP JUMPDEST PUSH8 0xFFFFFFFFFFFFFFFF DUP2 GT PUSH2 0x469 JUMPI PUSH1 0x20 SWAP1 PUSH1 0x1F ADD PUSH1 0x1F NOT AND ADD SWAP1 JUMP JUMPDEST ADD SWAP1 JUMP JUMPDEST SWAP1 DUP3 PUSH0 SWAP4 SWAP3 DUP3 CALLDATACOPY ADD MSTORE JUMP JUMPDEST SWAP1 SWAP3 SWAP2 SWAP3 PUSH2 0x4C3 PUSH2 0x4BE DUP3 PUSH2 0x482 JUMP JUMPDEST PUSH2 0x46E JUMP JUMPDEST SWAP4 DUP2 DUP6 MSTORE DUP2 DUP4 ADD GT PUSH2 0x120 JUMPI PUSH2 0x131 SWAP2 PUSH1 0x20 DUP6 ADD SWAP1 PUSH2 0x4A3 JUMP JUMPDEST SWAP1 DUP1 PUSH1 0x1F DUP4 ADD SLT ISZERO PUSH2 0x120 JUMPI DUP2 PUSH1 0x20 PUSH2 0x147 SWAP4 CALLDATALOAD SWAP2 ADD PUSH2 0x4AE JUMP JUMPDEST SWAP1 PUSH1 0x20 DUP3 DUP3 SUB SLT PUSH2 0x120 JUMPI DUP2 CALLDATALOAD PUSH8 0xFFFFFFFFFFFFFFFF DUP2 GT PUSH2 0x120 JUMPI PUSH2 0x147 SWAP3 ADD PUSH2 0x4DD JUMP JUMPDEST PUSH0 JUMPDEST DUP4 DUP2 LT PUSH2 0x52F JUMPI POP POP PUSH0 SWAP2 ADD MSTORE JUMP JUMPDEST DUP2 DUP2 ADD MLOAD DUP4 DUP3 ADD MSTORE PUSH1 0x20 ADD PUSH2 0x520 JUMP JUMPDEST PUSH2 0x49F PUSH2 0x557 SWAP3 PUSH1 0x20 SWAP3 PUSH2 0x551 DUP2 MLOAD SWAP1 JUMP JUMPDEST SWAP5 DUP6 SWAP3 SWAP1 JUMP JUMPDEST SWAP4 DUP5 SWAP2 ADD PUSH2 0x51E JUMP JUMPDEST PUSH2 0x570 PUSH2 0x49F SWAP2 PUSH1 0x20 SWAP5 SWAP4 PUSH2 0x53F JUMP JUMPDEST SWAP2 DUP3 MSTORE JUMP JUMPDEST PUSH2 0x58A PUSH2 0x581 PUSH1 0x40 MLOAD SWAP1 JUMP JUMPDEST SWAP3 DUP4 SWAP3 DUP4 PUSH2 0x560 JUMP JUMPDEST SUB SWAP1 KECCAK256 SWAP1 JUMP JUMPDEST PUSH2 0x147 SWAP2 PUSH2 0x575 JUMP JUMPDEST PUSH2 0x147 SWAP1 PUSH2 0x262 JUMP JUMPDEST PUSH2 0x147 SWAP1 SLOAD PUSH2 0x599 JUMP JUMPDEST PUSH2 0x147 SWAP1 DUP2 JUMP JUMPDEST PUSH2 0x147 SWAP1 SLOAD PUSH2 0x5AC JUMP JUMPDEST PUSH2 0x5C8 SWAP1 PUSH1 0x4 PUSH2 0x590 JUMP JUMPDEST PUSH2 0x5D1 DUP2 PUSH2 0x5A2 JUMP JUMPDEST SWAP2 PUSH2 0x5DE PUSH1 0x1 DUP4 ADD PUSH2 0x5B3 JUMP JUMPDEST SWAP2 PUSH2 0x5ED PUSH1 0x2 DUP3 ADD SLOAD PUSH1 0xFF AND SWAP1 JUMP JUMPDEST SWAP2 PUSH2 0x147 PUSH1 0x4 PUSH2 0x5FF PUSH1 0x3 DUP6 ADD PUSH2 0x5B3 JUMP JUMPDEST SWAP4 ADD PUSH2 0x5B3 JUMP JUMPDEST SWAP1 SWAP6 SWAP5 SWAP3 PUSH2 0x131 SWAP5 PUSH2 0x644 PUSH2 0x64B SWAP3 PUSH2 0x63B PUSH1 0x80 SWAP7 PUSH2 0x634 PUSH1 0xA0 DUP9 ADD SWAP13 PUSH0 DUP10 ADD SWAP1 PUSH1 0x1 PUSH1 0x1 PUSH1 0xA0 SHL SUB AND SWAP1 MSTORE JUMP JUMPDEST PUSH1 0x20 DUP8 ADD MSTORE JUMP JUMPDEST ISZERO ISZERO PUSH1 0x40 DUP6 ADD MSTORE JUMP JUMPDEST PUSH1 0x60 DUP4 ADD MSTORE JUMP JUMPDEST ADD MSTORE JUMP JUMPDEST CALLVALUE PUSH2 0x120 JUMPI PUSH2 0x167 PUSH2 0x66A PUSH2 0x665 CALLDATASIZE PUSH1 0x4 PUSH2 0x4F8 JUMP JUMPDEST PUSH2 0x5BD JUMP JUMPDEST SWAP2 PUSH2 0x677 SWAP6 SWAP4 SWAP6 PUSH1 0x40 MLOAD SWAP1 JUMP JUMPDEST SWAP6 DUP7 SWAP6 DUP7 PUSH2 0x606 JUMP JUMPDEST CALLVALUE PUSH2 0x120 JUMPI PUSH2 0x690 CALLDATASIZE PUSH1 0x4 PUSH2 0x1FE JUMP JUMPDEST PUSH2 0x162 PUSH2 0xF6E JUMP JUMPDEST CALLVALUE PUSH2 0x120 JUMPI PUSH2 0x6A8 CALLDATASIZE PUSH1 0x4 PUSH2 0x1FE JUMP JUMPDEST PUSH2 0x167 PUSH2 0x6B3 PUSH2 0xF76 JUMP JUMPDEST PUSH1 0x40 MLOAD SWAP2 DUP3 SWAP2 DUP3 PUSH1 0x1 PUSH1 0x1 PUSH1 0xA0 SHL SUB SWAP1 SWAP2 AND DUP2 MSTORE PUSH1 0x20 ADD SWAP1 JUMP JUMPDEST PUSH2 0x147 PUSH2 0x147 PUSH2 0x147 SWAP3 SWAP1 JUMP JUMPDEST PUSH2 0x147 PUSH2 0x3E8 PUSH2 0x6CD JUMP JUMPDEST PUSH2 0x147 PUSH2 0x6DA JUMP JUMPDEST CALLVALUE PUSH2 0x120 JUMPI PUSH2 0x6FD CALLDATASIZE PUSH1 0x4 PUSH2 0x1FE JUMP JUMPDEST PUSH2 0x167 PUSH2 0x3D0 PUSH2 0x6E5 JUMP JUMPDEST CALLVALUE PUSH2 0x120 JUMPI PUSH2 0x162 PUSH2 0x71B CALLDATASIZE PUSH1 0x4 PUSH2 0x33B JUMP JUMPDEST PUSH2 0xFE8 JUMP JUMPDEST PUSH2 0x131 SWAP1 PUSH2 0x72C PUSH2 0xFF1 JUMP JUMPDEST PUSH2 0x76E JUMP JUMPDEST SWAP1 PUSH0 NOT SWAP1 JUMPDEST SWAP2 DUP2 NOT AND SWAP2 AND OR SWAP1 JUMP JUMPDEST SWAP1 PUSH2 0x750 PUSH2 0x147 PUSH2 0x757 SWAP3 PUSH2 0x6CD JUMP JUMPDEST DUP3 SLOAD PUSH2 0x731 JUMP JUMPDEST SWAP1 SSTORE JUMP JUMPDEST SWAP1 DUP2 MSTORE PUSH1 0x40 DUP2 ADD SWAP3 SWAP2 PUSH2 0x131 SWAP2 PUSH1 0x20 ADD MSTORE JUMP JUMPDEST PUSH2 0x779 PUSH2 0x147 PUSH2 0x6DA JUMP JUMPDEST DUP2 GT PUSH2 0x7D0 JUMPI PUSH32 0x936008F1E981D6F48D4A529714C27D74D644750A1D215451212CE0F2476F2FBC SWAP1 PUSH2 0x7AB PUSH1 0x3 PUSH2 0x5B3 JUMP JUMPDEST PUSH2 0x7B6 DUP3 PUSH1 0x3 PUSH2 0x740 JUMP JUMPDEST PUSH2 0x7CB PUSH2 0x7C2 PUSH1 0x40 MLOAD SWAP1 JUMP JUMPDEST SWAP3 DUP4 SWAP3 DUP4 PUSH2 0x75B JUMP JUMPDEST SUB SWAP1 LOG1 JUMP JUMPDEST PUSH1 0x40 MLOAD PUSH4 0x58D620B3 PUSH1 0xE0 SHL DUP2 MSTORE PUSH1 0x4 SWAP1 REVERT JUMPDEST SUB SWAP1 REVERT JUMPDEST PUSH2 0x131 SWAP1 PUSH2 0x720 JUMP JUMPDEST SWAP1 PUSH2 0x131 SWAP4 SWAP3 SWAP2 PUSH2 0x7FE PUSH2 0x103D JUMP JUMPDEST PUSH2 0x95E JUMP JUMPDEST SWAP1 SWAP2 PUSH2 0x49F SWAP1 DUP4 SWAP1 DUP1 SWAP4 PUSH2 0x4A3 JUMP JUMPDEST PUSH2 0x570 SWAP1 PUSH1 0x20 SWAP5 SWAP4 PUSH2 0x49F SWAP4 PUSH2 0x803 JUMP JUMPDEST SWAP1 SWAP2 PUSH2 0x58A SWAP1 PUSH2 0x832 PUSH1 0x40 MLOAD SWAP1 JUMP JUMPDEST SWAP4 DUP5 SWAP4 DUP5 PUSH2 0x812 JUMP JUMPDEST SWAP1 SWAP2 PUSH2 0x147 SWAP3 PUSH2 0x823 JUMP JUMPDEST PUSH2 0x262 PUSH2 0x147 PUSH2 0x147 SWAP3 SWAP1 JUMP JUMPDEST PUSH2 0x147 SWAP1 PUSH2 0x846 JUMP JUMPDEST PUSH2 0x147 PUSH1 0xA0 PUSH2 0x46E JUMP JUMPDEST SWAP1 PUSH1 0x1 PUSH1 0x1 PUSH1 0xA0 SHL SUB SWAP1 PUSH2 0x736 JUMP JUMPDEST SWAP1 PUSH2 0x885 PUSH2 0x147 PUSH2 0x757 SWAP3 PUSH2 0x36C JUMP JUMPDEST DUP3 SLOAD PUSH2 0x866 JUMP JUMPDEST SWAP1 PUSH1 0xFF SWAP1 PUSH2 0x736 JUMP JUMPDEST SWAP1 PUSH2 0x8A5 PUSH2 0x147 PUSH2 0x757 SWAP3 ISZERO ISZERO SWAP1 JUMP JUMPDEST DUP3 SLOAD PUSH2 0x88C JUMP JUMPDEST SWAP1 PUSH2 0x750 PUSH2 0x147 PUSH2 0x757 SWAP3 SWAP1 JUMP JUMPDEST PUSH1 0x4 PUSH2 0x92D PUSH1 0x80 PUSH2 0x131 SWAP5 PUSH2 0x8E1 PUSH2 0x8DB PUSH0 DUP4 ADD MLOAD PUSH1 0x1 PUSH1 0x1 PUSH1 0xA0 SHL SUB AND SWAP1 JUMP JUMPDEST DUP7 PUSH2 0x875 JUMP JUMPDEST PUSH2 0x8F8 PUSH2 0x8EF PUSH1 0x20 DUP4 ADD MLOAD SWAP1 JUMP JUMPDEST PUSH1 0x1 DUP8 ADD PUSH2 0x740 JUMP JUMPDEST PUSH2 0x911 PUSH2 0x908 PUSH1 0x40 DUP4 ADD MLOAD ISZERO ISZERO SWAP1 JUMP JUMPDEST PUSH1 0x2 DUP8 ADD PUSH2 0x895 JUMP JUMPDEST PUSH2 0x928 PUSH2 0x91F PUSH1 0x60 DUP4 ADD MLOAD SWAP1 JUMP JUMPDEST PUSH1 0x3 DUP8 ADD PUSH2 0x8AC JUMP JUMPDEST ADD MLOAD SWAP1 JUMP JUMPDEST SWAP2 ADD PUSH2 0x740 JUMP JUMPDEST SWAP1 PUSH2 0x131 SWAP2 PUSH2 0x8BA JUMP JUMPDEST SWAP1 SWAP2 PUSH2 0x147 SWAP3 PUSH2 0x803 JUMP JUMPDEST PUSH2 0x58A PUSH2 0x955 PUSH1 0x40 MLOAD SWAP1 JUMP JUMPDEST SWAP3 DUP4 SWAP3 DUP4 PUSH2 0x93E JUMP JUMPDEST SWAP3 SWAP2 SWAP3 PUSH2 0x96A PUSH0 PUSH2 0x6CD JUMP JUMPDEST DUP5 EQ PUSH2 0xA54 JUMPI PUSH1 0x4 PUSH2 0x987 PUSH0 PUSH2 0x981 DUP6 DUP6 DUP6 PUSH2 0x83B JUMP JUMPDEST ADD PUSH2 0x5A2 JUMP JUMPDEST PUSH2 0x9A3 PUSH2 0x996 PUSH2 0x262 PUSH0 PUSH2 0x853 JUMP JUMPDEST SWAP2 PUSH1 0x1 PUSH1 0x1 PUSH1 0xA0 SHL SUB AND SWAP1 JUMP JUMPDEST SUB PUSH2 0xA35 JUMPI SWAP2 DUP2 PUSH2 0xA14 PUSH32 0x26CF7659D8E7A5E796906C479982E0AEF4B09A89280A426C9F6A584C1E46A618 SWAP5 PUSH2 0xA0F DUP5 PUSH2 0xA19 SWAP7 PUSH2 0x9DF PUSH2 0x85C JUMP JUMPDEST CALLER DUP2 MSTORE SWAP4 PUSH2 0x9EE DUP13 PUSH1 0x20 DUP8 ADD MSTORE JUMP JUMPDEST PUSH0 PUSH1 0x40 DUP7 ADD MSTORE PUSH2 0x9FF DUP12 PUSH1 0x60 DUP8 ADD MSTORE JUMP JUMPDEST PUSH2 0xA0A TIMESTAMP PUSH1 0x80 DUP8 ADD MSTORE JUMP JUMPDEST PUSH2 0x83B JUMP JUMPDEST PUSH2 0x934 JUMP JUMPDEST PUSH2 0x949 JUMP JUMPDEST SWAP2 PUSH2 0xA23 CALLER PUSH2 0x36C JUMP JUMPDEST SWAP4 PUSH2 0xA30 PUSH2 0x7C2 PUSH1 0x40 MLOAD SWAP1 JUMP JUMPDEST SUB SWAP1 LOG3 JUMP JUMPDEST PUSH2 0x7E2 SWAP1 PUSH2 0xA42 PUSH1 0x40 MLOAD SWAP1 JUMP JUMPDEST PUSH4 0x5D2CDD21 PUSH1 0xE1 SHL DUP2 MSTORE SWAP2 DUP3 SWAP2 DUP3 ADD SWAP1 JUMP JUMPDEST PUSH1 0x40 MLOAD PUSH3 0xBFC921 PUSH1 0xE0 SHL DUP2 MSTORE PUSH1 0x4 SWAP1 REVERT JUMPDEST SWAP1 PUSH2 0x131 SWAP4 SWAP3 SWAP2 PUSH2 0x7EF JUMP JUMPDEST PUSH2 0xA79 PUSH2 0xFF1 JUMP JUMPDEST PUSH2 0x131 PUSH2 0x131 PUSH2 0x109B JUMP JUMPDEST PUSH2 0x131 PUSH2 0xA71 JUMP JUMPDEST PUSH2 0xA94 PUSH2 0xFF1 JUMP JUMPDEST PUSH2 0x131 PUSH2 0xA9F PUSH2 0x10AD JUMP JUMPDEST PUSH2 0xAA7 PUSH2 0xADA JUMP JUMPDEST PUSH2 0x131 PUSH2 0x10ED JUMP JUMPDEST SWAP1 PUSH2 0x570 PUSH2 0x4BE DUP4 PUSH2 0x482 JUMP JUMPDEST RETURNDATASIZE ISZERO PUSH2 0xAD5 JUMPI PUSH2 0xACB RETURNDATASIZE PUSH2 0xAAF JUMP JUMPDEST SWAP1 RETURNDATASIZE PUSH0 PUSH1 0x20 DUP5 ADD RETURNDATACOPY JUMP JUMPDEST PUSH1 0x60 SWAP1 JUMP JUMPDEST PUSH2 0xAF4 PUSH2 0xAEF PUSH2 0xAE8 PUSH2 0xF76 JUMP JUMPDEST PUSH1 0x5 PUSH2 0x375 JUMP JUMPDEST PUSH2 0x5B3 JUMP JUMPDEST PUSH2 0xAFD PUSH0 PUSH2 0x6CD JUMP JUMPDEST DUP2 EQ PUSH2 0xB9D JUMPI PUSH2 0xB1F PUSH2 0xB0F PUSH0 PUSH2 0x6CD JUMP JUMPDEST PUSH2 0xB1A PUSH2 0xAE8 PUSH2 0xF76 JUMP JUMPDEST PUSH2 0x740 JUMP JUMPDEST PUSH2 0xB44 PUSH0 DUP1 PUSH2 0xB2C PUSH2 0xF76 JUMP JUMPDEST PUSH1 0x40 MLOAD DUP6 DUP2 DUP1 JUMPDEST SUB SWAP3 GAS CALL PUSH2 0xB3F PUSH2 0xABC JUMP JUMPDEST POP ISZERO SWAP1 JUMP JUMPDEST PUSH2 0xB8B JUMPI PUSH32 0xEAFF4B37086828766AD3268786972C0CD24259D4C87A80F9D3963A3C3D999B0D PUSH2 0xB86 PUSH2 0xB7C PUSH2 0xB77 PUSH2 0xF76 JUMP JUMPDEST PUSH2 0x36C JUMP JUMPDEST SWAP3 PUSH2 0x3D4 PUSH1 0x40 MLOAD SWAP1 JUMP JUMPDEST SUB SWAP1 LOG2 JUMP JUMPDEST PUSH1 0x40 MLOAD PUSH4 0x12171D83 PUSH1 0xE3 SHL DUP2 MSTORE PUSH1 0x4 SWAP1 REVERT JUMPDEST PUSH1 0x40 MLOAD PUSH4 0x177B02E1 PUSH1 0xE3 SHL DUP2 MSTORE PUSH1 0x4 SWAP1 REVERT JUMPDEST PUSH2 0x131 PUSH2 0xA8C JUMP JUMPDEST PUSH2 0xBBF PUSH2 0x85C JUMP JUMPDEST SWAP1 PUSH0 DUP3 MSTORE PUSH1 0x20 DUP1 DUP1 DUP1 DUP1 DUP7 ADD PUSH0 DUP2 MSTORE ADD PUSH0 DUP2 MSTORE ADD PUSH0 DUP2 MSTORE ADD PUSH0 SWAP1 MSTORE POP JUMP JUMPDEST PUSH2 0x147 PUSH2 0xBB7 JUMP JUMPDEST SWAP1 PUSH2 0x131 PUSH2 0xC5C PUSH1 0x4 PUSH2 0xBF6 PUSH2 0x85C JUMP JUMPDEST SWAP5 PUSH2 0xC10 PUSH2 0xC03 DUP3 PUSH2 0x5A2 JUMP JUMPDEST PUSH1 0x1 PUSH1 0x1 PUSH1 0xA0 SHL SUB AND DUP8 MSTORE JUMP JUMPDEST PUSH2 0xC26 PUSH2 0xC1F PUSH1 0x1 DUP4 ADD PUSH2 0x5B3 JUMP JUMPDEST PUSH1 0x20 DUP9 ADD MSTORE JUMP JUMPDEST PUSH2 0xC40 PUSH2 0xC37 PUSH1 0x2 DUP4 ADD SLOAD PUSH1 0xFF AND SWAP1 JUMP JUMPDEST ISZERO ISZERO PUSH1 0x40 DUP9 ADD MSTORE JUMP JUMPDEST PUSH2 0xC56 PUSH2 0xC4F PUSH1 0x3 DUP4 ADD PUSH2 0x5B3 JUMP JUMPDEST PUSH1 0x60 DUP9 ADD MSTORE JUMP JUMPDEST ADD PUSH2 0x5B3 JUMP JUMPDEST PUSH1 0x80 DUP5 ADD MSTORE JUMP JUMPDEST PUSH2 0x147 SWAP1 PUSH2 0xBE5 JUMP JUMPDEST PUSH2 0x147 SWAP2 PUSH2 0xC84 SWAP2 PUSH2 0xC7C PUSH2 0xBDD JUMP JUMPDEST POP PUSH1 0x4 PUSH2 0x83B JUMP JUMPDEST PUSH2 0xC63 JUMP JUMPDEST PUSH2 0xC91 PUSH2 0xFF1 JUMP JUMPDEST PUSH2 0x131 PUSH2 0x131 PUSH2 0xCA0 PUSH0 PUSH2 0x853 JUMP JUMPDEST PUSH2 0x10FF JUMP JUMPDEST PUSH2 0x131 PUSH2 0xC89 JUMP JUMPDEST SWAP1 PUSH2 0xAA7 SWAP2 PUSH2 0xCBA PUSH2 0x10AD JUMP JUMPDEST SWAP1 PUSH2 0x131 SWAP2 PUSH2 0xCC7 PUSH2 0x103D JUMP JUMPDEST PUSH2 0xD35 JUMP JUMPDEST PUSH4 0x4E487B71 PUSH1 0xE0 SHL PUSH0 MSTORE PUSH1 0x11 PUSH1 0x4 MSTORE PUSH1 0x24 PUSH0 REVERT JUMPDEST DUP2 DUP2 MUL SWAP3 SWAP2 DUP2 ISZERO SWAP2 DUP5 DIV EQ OR ISZERO PUSH2 0xCF3 JUMPI JUMP JUMPDEST PUSH2 0xCCC JUMP JUMPDEST PUSH4 0x4E487B71 PUSH1 0xE0 SHL PUSH0 MSTORE PUSH1 0x12 PUSH1 0x4 MSTORE PUSH1 0x24 PUSH0 REVERT JUMPDEST DUP2 ISZERO PUSH2 0xD16 JUMPI DIV SWAP1 JUMP JUMPDEST PUSH2 0xCF8 JUMP JUMPDEST SWAP2 SWAP1 DUP3 SUB SWAP2 DUP3 GT PUSH2 0xCF3 JUMPI JUMP JUMPDEST SWAP2 SWAP1 DUP3 ADD DUP1 SWAP3 GT PUSH2 0xCF3 JUMPI JUMP JUMPDEST SWAP1 PUSH1 0x4 SWAP1 PUSH2 0xD47 PUSH2 0x147 DUP3 DUP6 DUP6 PUSH2 0x83B JUMP JUMPDEST PUSH2 0xD50 DUP2 PUSH2 0x5A2 JUMP JUMPDEST PUSH2 0xD5F PUSH2 0x996 PUSH2 0x262 PUSH0 PUSH2 0x853 JUMP JUMPDEST EQ PUSH2 0xF32 JUMPI PUSH1 0x2 DUP2 ADD DUP1 SLOAD PUSH1 0xFF AND PUSH2 0xF13 JUMPI PUSH2 0xD80 PUSH2 0x147 PUSH1 0x1 DUP5 ADD PUSH2 0x5B3 JUMP JUMPDEST CALLVALUE LT PUSH2 0xEF4 JUMPI PUSH1 0x1 PUSH2 0xD91 SWAP2 PUSH2 0x895 JUMP JUMPDEST PUSH1 0x1 DUP2 ADD SWAP3 PUSH2 0xDC6 PUSH2 0xDB5 PUSH2 0xDA5 DUP7 PUSH2 0x5B3 JUMP JUMPDEST PUSH2 0xDAF PUSH1 0x3 PUSH2 0x5B3 JUMP JUMPDEST SWAP1 PUSH2 0xCE0 JUMP JUMPDEST PUSH2 0xDC0 PUSH2 0x2710 PUSH2 0x6CD JUMP JUMPDEST SWAP1 PUSH2 0xD0C JUMP JUMPDEST PUSH2 0xDFC PUSH0 DUP1 DUP1 PUSH2 0xDDE DUP6 PUSH2 0xDD9 DUP12 PUSH2 0x5B3 JUMP JUMPDEST PUSH2 0xD1B JUMP JUMPDEST SWAP7 ADD SWAP6 PUSH2 0xDEA DUP8 PUSH2 0x5A2 JUMP JUMPDEST SWAP1 PUSH2 0xDF4 PUSH1 0x40 MLOAD SWAP1 JUMP JUMPDEST SWAP1 DUP2 DUP1 PUSH2 0xB33 JUMP JUMPDEST PUSH2 0xEE7 JUMPI PUSH2 0xE27 SWAP1 PUSH2 0xE21 PUSH2 0xE12 PUSH2 0xAE8 PUSH2 0xF76 JUMP JUMPDEST SWAP2 PUSH2 0xE1C DUP4 PUSH2 0x5B3 JUMP JUMPDEST PUSH2 0xD28 JUMP JUMPDEST SWAP1 PUSH2 0x740 JUMP JUMPDEST PUSH2 0xE33 PUSH2 0x147 DUP6 PUSH2 0x5B3 JUMP JUMPDEST CALLVALUE GT PUSH2 0xE9C JUMPI JUMPDEST POP SWAP1 PUSH2 0xE51 PUSH2 0xE4B PUSH2 0xE57 SWAP4 PUSH2 0x5A2 JUMP JUMPDEST SWAP4 PUSH2 0x5B3 JUMP JUMPDEST SWAP4 PUSH2 0x949 JUMP JUMPDEST PUSH32 0xE67A49D79384867FBF08D5387807FE2BC4146DA7AD6A98CF7EFF9678BB0D95E7 PUSH2 0xE97 PUSH2 0xE8D PUSH2 0xE87 CALLER PUSH2 0x36C JUMP JUMPDEST SWAP5 PUSH2 0x36C JUMP JUMPDEST SWAP5 PUSH2 0x3D4 PUSH1 0x40 MLOAD SWAP1 JUMP JUMPDEST SUB SWAP1 LOG4 JUMP JUMPDEST PUSH2 0xEC3 PUSH0 DUP1 PUSH2 0xEB3 PUSH2 0xEAD DUP9 PUSH2 0x5B3 JUMP JUMPDEST CALLVALUE PUSH2 0xD1B JUMP JUMPDEST PUSH1 0x40 MLOAD PUSH0 SWAP2 CALLER GAS CALL PUSH2 0xB3F PUSH2 0xABC JUMP JUMPDEST ISZERO PUSH2 0xE3A JUMPI PUSH2 0x7E2 SWAP1 PUSH2 0xED5 PUSH1 0x40 MLOAD SWAP1 JUMP JUMPDEST PUSH4 0x12171D83 PUSH1 0xE3 SHL DUP2 MSTORE SWAP2 DUP3 SWAP2 DUP3 ADD SWAP1 JUMP JUMPDEST PUSH2 0x7E2 DUP3 PUSH2 0xED5 PUSH1 0x40 MLOAD SWAP1 JUMP JUMPDEST PUSH2 0x7E2 DUP5 PUSH2 0xF01 PUSH1 0x40 MLOAD SWAP1 JUMP JUMPDEST PUSH4 0xCD1C8867 PUSH1 0xE0 SHL DUP2 MSTORE SWAP2 DUP3 SWAP2 DUP3 ADD SWAP1 JUMP JUMPDEST PUSH2 0x7E2 DUP5 PUSH2 0xF20 PUSH1 0x40 MLOAD SWAP1 JUMP JUMPDEST PUSH4 0x7E78FB93 PUSH1 0xE1 SHL DUP2 MSTORE SWAP2 DUP3 SWAP2 DUP3 ADD SWAP1 JUMP JUMPDEST PUSH2 0x7E2 DUP4 PUSH2 0xF3F PUSH1 0x40 MLOAD SWAP1 JUMP JUMPDEST PUSH4 0xFC87CC7 PUSH1 0xE3 SHL DUP2 MSTORE SWAP2 DUP3 SWAP2 DUP3 ADD SWAP1 JUMP JUMPDEST SWAP1 PUSH2 0x131 SWAP2 PUSH2 0xCAD JUMP JUMPDEST PUSH2 0xF63 PUSH2 0xFF1 JUMP JUMPDEST PUSH2 0x131 PUSH2 0x131 PUSH2 0x1191 JUMP JUMPDEST PUSH2 0x131 PUSH2 0xF5B JUMP JUMPDEST PUSH2 0x147 PUSH0 PUSH2 0x5A2 JUMP JUMPDEST PUSH2 0x131 SWAP1 PUSH2 0xF8B PUSH2 0xFF1 JUMP JUMPDEST PUSH2 0xF94 PUSH0 PUSH2 0x853 JUMP JUMPDEST PUSH1 0x1 PUSH1 0x1 PUSH1 0xA0 SHL SUB DUP2 AND PUSH1 0x1 PUSH1 0x1 PUSH1 0xA0 SHL SUB DUP4 AND EQ PUSH2 0xFB7 JUMPI POP PUSH2 0x131 SWAP1 PUSH2 0x10FF JUMP JUMPDEST PUSH2 0x7E2 SWAP1 PUSH2 0xFC4 PUSH1 0x40 MLOAD SWAP1 JUMP JUMPDEST PUSH4 0x1E4FBDF7 PUSH1 0xE0 SHL DUP2 MSTORE SWAP2 DUP3 SWAP2 PUSH1 0x4 DUP4 ADD PUSH1 0x1 PUSH1 0x1 PUSH1 0xA0 SHL SUB SWAP1 SWAP2 AND DUP2 MSTORE PUSH1 0x20 ADD SWAP1 JUMP JUMPDEST PUSH2 0x131 SWAP1 PUSH2 0xF7F JUMP JUMPDEST PUSH2 0xFF9 PUSH2 0xF76 JUMP JUMPDEST CALLER SWAP1 PUSH2 0x1004 DUP3 PUSH2 0x996 JUMP JUMPDEST SUB PUSH2 0x100C JUMPI POP JUMP JUMPDEST PUSH2 0x7E2 SWAP1 PUSH2 0x1019 PUSH1 0x40 MLOAD SWAP1 JUMP JUMPDEST PUSH4 0x118CDAA7 PUSH1 0xE0 SHL DUP2 MSTORE SWAP2 DUP3 SWAP2 PUSH1 0x4 DUP4 ADD PUSH1 0x1 PUSH1 0x1 PUSH1 0xA0 SHL SUB SWAP1 SWAP2 AND DUP2 MSTORE PUSH1 0x20 ADD SWAP1 JUMP JUMPDEST PUSH1 0x2 SLOAD PUSH1 0xFF AND PUSH2 0x1049 JUMPI JUMP JUMPDEST PUSH1 0x40 MLOAD PUSH4 0xD93C0665 PUSH1 0xE0 SHL DUP2 MSTORE PUSH1 0x4 SWAP1 REVERT JUMPDEST PUSH2 0x1063 PUSH2 0x1199 JUMP JUMPDEST PUSH2 0x131 PUSH2 0x1071 PUSH0 PUSH1 0x2 PUSH2 0x895 JUMP JUMPDEST PUSH32 0x5DB9EE0A495BF2E6FF9C91A7834C1BA4FDD244A5E8AA4E537BD38AEAE4B073AA PUSH2 0x7CB CALLER PUSH2 0x6B3 JUMP JUMPDEST PUSH2 0x131 PUSH2 0x105B JUMP JUMPDEST PUSH2 0x147 PUSH1 0x2 PUSH2 0x6CD JUMP JUMPDEST PUSH2 0x10B7 PUSH1 0x1 PUSH2 0x5B3 JUMP JUMPDEST PUSH2 0x10BF PUSH2 0x10A3 JUMP JUMPDEST SWAP1 DUP2 EQ PUSH2 0x10D1 JUMPI PUSH2 0x131 SWAP1 PUSH1 0x1 PUSH2 0x740 JUMP JUMPDEST PUSH1 0x40 MLOAD PUSH4 0x3EE5AEB5 PUSH1 0xE0 SHL DUP2 MSTORE PUSH1 0x4 SWAP1 REVERT JUMPDEST PUSH2 0x147 PUSH1 0x1 PUSH2 0x6CD JUMP JUMPDEST PUSH2 0x131 PUSH2 0x10F8 PUSH2 0x10E3 JUMP JUMPDEST PUSH1 0x1 PUSH2 0x740 JUMP JUMPDEST PUSH2 0x111E PUSH2 0x1118 PUSH2 0x110E PUSH0 PUSH2 0x5A2 JUMP JUMPDEST PUSH2 0xB77 DUP5 PUSH0 PUSH2 0x875 JUMP JUMPDEST SWAP2 PUSH2 0x36C JUMP JUMPDEST SWAP1 PUSH32 0x8BE0079C531659141344CD1FD0A4F28419497F9722A3DAAFE3B4186F6B6457E0 PUSH2 0x1149 PUSH1 0x40 MLOAD SWAP1 JUMP JUMPDEST DUP1 DUP1 PUSH2 0xA30 JUMP JUMPDEST PUSH2 0x1158 PUSH2 0x103D JUMP JUMPDEST PUSH2 0x131 PUSH2 0x1167 PUSH1 0x1 PUSH1 0x2 PUSH2 0x895 JUMP JUMPDEST PUSH32 0x62E78CEA01BEE320CD4E420270B5EA74000D11B0C9F74754EBDBFC544B05A258 PUSH2 0x7CB CALLER PUSH2 0x6B3 JUMP JUMPDEST PUSH2 0x131 PUSH2 0x1150 JUMP JUMPDEST PUSH2 0x11AC PUSH2 0x11A8 PUSH1 0x2 SLOAD PUSH1 0xFF AND SWAP1 JUMP JUMPDEST ISZERO SWAP1 JUMP JUMPDEST PUSH2 0x11B2 JUMPI JUMP JUMPDEST PUSH1 0x40 MLOAD PUSH4 0x8DFC202B PUSH1 0xE0 SHL DUP2 MSTORE PUSH1 0x4 SWAP1 REVERT INVALID LOG2 PUSH5 0x6970667358 0x22 SLT KECCAK256 0xE9 0xB1 0xA6 0x4D 0xD7 MSTORE8 0xD0 0x2F BYTE SWAP13 0xEC 0xCC BLOBHASH PUSH1 0xD5 LOG0 DUP15 0xE0 0xED PUSH23 0x244C5E98FF57F56D1DE5752064736F6C63430008180033 "},"methodIdentifiers":{"MAX_FEE()":"bc063e1a","createListing(string,uint256,bytes32)":"35c87d60","getListing(string)":"4ae9ec30","isPaused()":"b187bd26","listings(string)":"77dec6c3","marketplaceFee()":"6a166964","owner()":"8da5cb5b","pause()":"8456cb59","paused()":"5c975abb","purchaseListing(string)":"75e6daa3","renounceOwnership()":"715018a6","sellerBalances(address)":"607eb4e4","transferOwnership(address)":"f2fde38b","unpause()":"3f4ba83a","updateMarketplaceFee(uint256)":"30eb80cd","withdrawFees()":"476343ee"}}}}}