{
  "_format": "hh3-artifact-1",
  "contractName": "TestVerifiableMarketplace",
  "sourceName": "test/VerifiableMarketplace.test.sol",
  "abi": [
    {
      "inputs": [],
      "name": "testDeployment",
      "outputs": [],
      "stateMutability": "pure",
      "type": "function"
    }
  ],
  "bytecode": "0x6080604052346100185760405160c461001d823960c490f35b5f80fdfe608060405260043610156010575f80fd5b5f3560e01c6323f8603a14602c575b5f80fd5b5f910312601f57565b34601f5760393660046023565b603f6075565b604051005b6051604e604e9290565b90565b60ff1690565b634e487b7160e01b5f52600160045260245ffd5b15607157565b6057565b608c607f60016044565b608760016044565b14606b565b56fea26469706673582212204a69a84741c5a227553a1303dd7c60506f1e403ccb9b7a6673853493ac004e7d64736f6c63430008180033",
  "linkReferences": {},
  "deployedLinkReferences": {},
  "immutableReferences": {},
  "inputSourceName": "project/test/VerifiableMarketplace.test.sol",
  "buildInfoId": "solc-0_8_24-91df122bfd4032b6686cdaa7093e48e8e6bf42d7"
}