{"project/test/VerifiableMarketplace.test.sol":{"TestVerifiableMarketplace":{"abi":[{"inputs":[],"name":"testDeployment","outputs":[],"stateMutability":"pure","type":"function"}],"evm":{"bytecode":{"linkReferences":{},"object":"6080604052346100185760405160c461001d823960c490f35b5f80fdfe608060405260043610156010575f80fd5b5f3560e01c6323f8603a14602c575b5f80fd5b5f910312601f57565b34601f5760393660046023565b603f6075565b604051005b6051604e604e9290565b90565b60ff1690565b634e487b7160e01b5f52600160045260245ffd5b15607157565b6057565b608c607f60016044565b608760016044565b14606b565b56fea26469706673582212204a69a84741c5a227553a1303dd7c60506f1e403ccb9b7a6673853493ac004e7d64736f6c63430008180033","opcodes":"PUSH1 0x80 PUSH1 0x40 MSTORE CALLVALUE PUSH2 0x18 JUMPI PUSH1 0x40 MLOAD PUSH1 0xC4 PUSH2 0x1D DUP3 CODECOPY PUSH1 0xC4 SWAP1 RETURN JUMPDEST PUSH0 DUP1 REVERT INVALID PUSH1 0x80 PUSH1 0x40 MSTORE PUSH1 0x4 CALLDATASIZE LT ISZERO PUSH1 0x10 JUMPI PUSH0 DUP1 REVERT JUMPDEST PUSH0 CALLDATALOAD PUSH1 0xE0 SHR PUSH4 0x23F8603A EQ PUSH1 0x2C JUMPI JUMPDEST PUSH0 DUP1 REVERT JUMPDEST PUSH0 SWAP2 SUB SLT PUSH1 0x1F JUMPI JUMP JUMPDEST CALLVALUE PUSH1 0x1F JUMPI PUSH1 0x39 CALLDATASIZE PUSH1 0x4 PUSH1 0x23 JUMP JUMPDEST PUSH1 0x3F PUSH1 0x75 JUMP JUMPDEST PUSH1 0x40 MLOAD STOP JUMPDEST PUSH1 0x51 PUSH1 0x4E PUSH1 0x4E SWAP3 SWAP1 JUMP JUMPDEST SWAP1 JUMP JUMPDEST PUSH1 0xFF AND SWAP1 JUMP JUMPDEST PUSH4 0x4E487B71 PUSH1 0xE0 SHL PUSH0 MSTORE PUSH1 0x1 PUSH1 0x4 MSTORE PUSH1 0x24 PUSH0 REVERT JUMPDEST ISZERO PUSH1 0x71 JUMPI JUMP JUMPDEST PUSH1 0x57 JUMP JUMPDEST PUSH1 0x8C PUSH1 0x7F PUSH1 0x1 PUSH1 0x44 JUMP JUMPDEST PUSH1 0x87 PUSH1 0x1 PUSH1 0x44 JUMP JUMPDEST EQ PUSH1 0x6B JUMP JUMPDEST JUMP INVALID LOG2 PUSH5 0x6970667358 0x22 SLT KECCAK256 BLOBBASEFEE PUSH10 0xA84741C5A227553A1303 0xDD PUSH29 0x60506F1E403CCB9B7A6673853493AC004E7D64736F6C63430008180033 "},"methodIdentifiers":{"testDeployment()":"23f8603a"}}}}}